S01800006275696C642F6D6963617A2F6D61696E2E73726563E5
S11300000C945E000C9405050C940F050C941905D2
S11300100C9423050C942D050C9437050C94E406DC
S11300200C9441050C947D000C947D000C94EF1607
S11300300C949D0B0C94CF040C94E5040C944B0588
S11300400C94BE040C94D10D0C947D000C947D0092
S11300500C947D000C947D000C947D000C947D0028
S11300600C94DA040C947D000C947D000C947D00B7
S11300700C947D000C947D000C947D000C947D0008
S11300800C947D000C947D000C947D00610E8E0E0A
S1130090AF0ED20EF70E1B0F3A0F6D0F5B0EDC0F77
S11300A0E80F7D108310D410EF10F6102F11EA1111
S11300B00E122412E21400081C18141011241FBE7E
S11300C0CFEFD0E1DEBFCDBF11E0A0E0B1E0EAE0C8
S11300D0F9E300E00BBF02C007900D92AE30B10708
S11300E0D9F712E0AEE0B1E001C01D92A337B10729
S11300F0E1F70E943A150C94841C0C9400008FB70D
S1130100F894992708958FBF0895FC018281992757
S1130110582F442781819927482B592BCA01892FAD
S1130120992786958695837090708230910559F051
S11301308330910559F0892B19F420E030E008C090
S11301402CE93FEF05C022E030E002C028E030E0B7
S1130150CA0184E0989F812D99271124823091054A
S113016059F08330910559F0892B19F480E090E01F
S113017008C08CE99FEF05C082E090E002C088E0EF
S113018090E0280F391F2A5F3F4FCF01820F931F42
S11301900895282F9FB7F894662349F0E82FFF2786
S11301A0E850FE4F8081882311F021E006C0E22F41
S11301B0FF27E850FE4F608320E0892F99278FBFE7
S11301C0822F99270895E82F8FB7F894282F332783
S11301D090E0FF27E850FE4F8081861709F491E0F4
S11301E02FBF892F99270895882311F06E9A0895B7
S11301F06E980895882311F06F9A08956F98089562
S113020080E00E94F400BA9ABB98B99AB89A6C9AA2
S113021080E00E94FA006B986A9881E00E94F400E2
S1130220709A8DB18C7F8DB908950F931F93CF93DE
S1130230DF93182F8FB7F894C82FDD270C2F61E0B8
S113024080E00E94C900882321F0CFBF85E090E0C0
S113025024C0809107018823A1F480911901823080
S113026081F409C082E080931901109207010E9471
S11302700001B89AC0981093040180E00FBF992739
S11302800CC080911901882369F38FB7F8949927DA
S11302901092F8018FBF81E0F1CFDF91CF911F91D0
S11302A00F910895282F9FB7F894E82FFF27E25C59
S11302B0FE4F80818F3F81F4E0917102E21771F467
S11302C00BC02093620204C0FF27E25CFE4F208330
S11302D02093710220E007C025E005C080916202EE
S11302E08F3F91F7EECF892F99278FBF822F9927C0
S11302F008951F93182F81E00E94F4001FB9779B83
S1130300FECF8FB199271F9108958F929F92AF923C
S1130310BF92CF92DF92EF92FF920F931F93CF93EE
S1130320DF938FB7F8949927C0906B02D0906C023A
S11303308090BD019090BE01C0918101D091820155
S11303402091220130912301EAE0AE2EB12CAC0EB3
S1130350BD1E2A153B0508F459018FBF7401EC0E2C
S1130360FD1E86010C0F1D1F14C0C114D10419F009
S1130370F801808101C080E00E9479018114910418
S113038011F0F701808321960894E11CF11C0F5FA2
S11303901F4FC5010197C817D90738F381E00E94A0
S11303A0FA009FB7F894C114D10431F0CC0EDD1ECD
S11303B0F60180818FB901C01FB8D0938201C09328
S11303C08101892F99278FBF80E090E0DF91CF9141
S11303D01F910F91FF90EF90DF90CF90BF90AF905F
S11303E09F908F9008952FB7F8943327509323014B
S11303F04093220190936C0280936B027093BE0130
S11304006093BD0110928201109281012FBF452B90
S113041029F08FB10E9485019927089581E10E94F6
S1130420520180E090E008958FB7F89499271092D4
S1130430FA018FBF08950895EF920F931F93AE2D85
S113044099E0899FF0011124E957FE4F40835183BD
S1130450628373830483158326833783A170808525
S11304608E7F8A2B8260808787E00E9452011F91D1
S11304700F91EF9008957FB7F89462B7209125010A
S113048030912601409127015091280106B601FEC2
S11304900FC081B792B7280F311D411D511D2F5F29
S11304A03F4F4F4F5F4F290F311D411D511D04C058
S11304B0260F311D411D511D872F99278FBFCA015A
S11304C0B901089580E880933C0110925F01109275
S11304D065021092610210925B010895CF93DF933D
S11304E0FC0115A6DC019E96ED011B821A8219827D
S11304F080E886A7DF91CF9108952F923F924F9283
S11305005F926F927F928F929F92AF92BF92CF929F
S1130510DF92EF92FF920F931F93CF93DF93CDB7A8
S1130520DEB729970FB6F894DEBF0FBECDBF6FB705
S11305306983F894209065013090660140906701CA
S113054050906801662477248824BEE4AB2EA3E887
S1130550BA2ECC24DD24EE24FF2400E010E0222D6A
S1130560332D442D552D662D772D882D90E00E9436
S11305708D182A833B834C835D836E837F838887B6
S11305809987822E932EA42EB52E2401350100E2E4
S11305900E948B19A22EB32EC42ED52EA301920134
S11305A056954795379527952A0D3B1D4C1D5D1D86
S11305B057FF05C05F772F5F3F4F4F4F5F4F20932B
S11305C06501309366014093670150936801E981A6
S11305D08E2F99278FBFCA01B90129960FB6F894B7
S11305E0DEBF0FBECDBFDF91CF911F910F91FF9062
S11305F0EF90DF90CF90BF90AF909F908F907F90BF
S11306006F905F904F903F902F9008958FB7F8941C
S113061060918501709186012CB53DB506B602FE48
S113062004C06F5F7F4F2CB53DB599278FBF8827D6
S11306309927CB017727662744275527622B732BED
S1130640842B952B0895EF92FF920F931F930E9492
S113065006037B018C0120916F0130917001409160
S113066071015091720180916A0190916B01A09186
S11306706C01B0916D01820F931FA41FB51FE21688
S1130680F3060407150730F082179307A407B5078C
S113069058F005C082179307A407B507E0F5E816DC
S11306A0F9060A071B07B8F59C01AD012E193F098D
S11306B0400B510B213060E8360760E0460760E0EC
S11306C0560768F180E090E8A0E0B0E0E80EF91E7B
S11306D00A1F1B1FE0926F01F092700100937101D9
S11306E01093720180E090E8AFEFBFEFE80EF91EBF
S11306F00A1F1B1F205030484040504020936A017D
S113070030936B0140936C0150936D0120E030E80D
S113071040E050E014C020E030E040E050E080933E
S11307206F0190937001A0937101B09372011092C4
S11307306A0110926B0110926C0110926D01A90173
S1130740B7012CB53DB5C9018E199F0903968417CD
S1130750950720F0B9016D5F7F4F02C0640F751FCC
S11307606115710511F461E070E0615070407BBD6A
S11307706ABD80E186BF87B7806187BF1F910F91F3
S1130780FF90EF9008950F931F930FB7F8941127DC
S113079060936F0170937001809371019093720163
S11307A020936A0130936B0140936C0150936D0167
S11307B00E9423030FBF1F910F91089597B79F7D48
S11307C097BF90E296BF882319F08EB5806402C06B
S11307D08EB58F7B8EBD87B7806287BF80E090E047
S11307E00895DF92EF92FF920F931F938FB7F894BF
S11307F0282F3327D22E91B782B746B7981711F016
S113080041FF02C02FBF6AC0809180018823E1F1BB
S11308100E943B02E090F401F090F5010091F60192
S11308201091F701209138013091390140913A013A
S113083050913B016E197F09800B910B621773076E
S11308408407950720F01092800171E01EC02E0DE0
S11308503F1D401F511F8091250190912601A091B9
S11308602701B0912801281B390B4A0B5B0B273E4B
S113087031054105510540F4822F223010F070E01B
S113088005C070E082E002C070E086EE682F61501F
S113089000B601FCFDCF82B7681709F46F5F2091A1
S11308A02501309126014091270150912801DA0158
S11308B0C9010196A11DB11D860F911DA11DB11D78
S11308C082179307A407B50710F4622F609561BFE0
S11308D0DFBE772319F086E00E9452011F910F9129
S11308E0FF90EF90DF900895AFB7F894BB27E1E055
S11308F0E09380016093F4017093F5018093F60115
S11309009093F701209338013093390140933A01D1
S113091050933B01AFBF0E94F1030895AF92BF9281
S1130920CF92DF92EF92FF920F931F93CF93DF93B7
S1130930CDB7DEB728970FB6F894DEBF0FBECDBF94
S113094020E070E0E0910001F091010132E14DE618
S11309505CE46FE4809101019E2F28960FB6F89411
S1130960DEBF0FBECDBFDF91CF911F910F91FF90DE
S1130970EF90DF90CF90BF90AF9008951F920F92A9
S11309800FB60F9211248F9383B783BF00B600FC78
S1130990FDCF8F910F900FBE0F901F9018957894F4
S11309A01F920F920FB60F9211240F900FBE0F904B
S11309B01F90189578941F920F920FB60F921124DE
S11309C00F900FBE0F901F90189578941F920F925E
S11309D00FB60F9211242F933F938F939F932FB7AA
S11309E0F894332780918501909186010196909324
S11309F08601809385012FBF9F918F913F912F9105
S1130A000F900FBE0F901F9018951F920F920FB664
S1130A100F9211240F900FBE0F901F9018951F92E4
S1130A200F920FB60F9211240F900FBE0F901F90CC
S1130A3018951F920F920FB60F9211240F900FBEAC
S1130A400F901F9018951F920F920FB60F921124BA
S1130A500F900FBE0F901F9018951F920F920FB614
S1130A600F9211240F900FBE0F901F9018951F9294
S1130A700F920FB60F9211240F900FBE0F901F907C
S1130A8018951F920F920FB60F9211240F900FBE5C
S1130A900F901F9018951F920F920FB60F9211246A
S1130AA02F933F934F935F936F937F938F939F9372
S1130AB0AF93BF93EF93FF9383B783BF00B600FC5C
S1130AC0FDCF81B799270196AA27BB27209125013D
S1130AD0309126014091270150912801280F391F98
S1130AE04A1F5B1F20932501309326014093270161
S1130AF05093280178940E94F103FF91EF91BF91E4
S1130B00AF919F918F917F916F915F914F913F91A1
S1130B102F910F900FBE0F901F9018950F931F9356
S1130B20182F0FB7F89461E080E00E94C900882371
S1130B3071F510930401809107018823A9F5809130
S1130B401901823089F580E10CC00E940001809176
S1130B501901882349F481E08093190110925C0102
S1130B6082E10E9452012AC080916E018F3F31F5CB
S1130B70E0910601EE2311F11CC01092050104C09E
S1130B80FF27E259FE4F10821092060117C081E040
S1130B9090E002C0880F991F1A95E2F7209118017E
S1130BA0282B209318010AC0809119018823E1F6AB
S1130BB0CCCF809105018F3F19F7DFCF802F992784
S1130BC08FBF80E090E01F910F9108951F9383E001
S1130BD00E9415019927182F882319F083E00E9499
S1130BE08E05812F99271F910895CF92DF92EF925E
S1130BF0FF920F931F93CF93DF938C01F62E6A011C
S1130C00E22E8FB7F894C82FDD2760E080E00E94C1
S1130C10E300882321F0CFBF80E090E01EC0CFBF67
S1130C200F0D111D802F80680E947901F82E1695F2
S1130C300795802F807C0E9479010E2D0AC0EE2D2D
S1130C40FF27E01BF109EC0DFD1D80810E94790155
S1130C5001500023A1F78F2D9927DF91CF911F9188
S1130C600F91FF90EF90DF90CF900895CF93DF9393
S1130C70CDB7DEB72C970FB6F894DEBF0FBECDBF4D
S1130C808FB7F894282FAE014F5F5F4FDA01EEEF74
S1130C90F1E088E001900D928150E1F780916001CC
S1130CA0909161018987892F99278A87809173019F
S1130CB0909174018B87892F99278C872FBF2CE003
S1130CC060E080E691E00E94F5052C960FB6F8945A
S1130CD0DEBF0FBECDBFDF91CF9108951F93CF9399
S1130CE0DF93182F8FB7F894C82FDD2760E080E0DA
S1130CF00E94E300882321F0CFBF80E090E005C08C
S1130D00CFBF812F0E9479019927DF91CF911F9145
S1130D100895EF92FF920F931F93CF93DF93182FB1
S1130D207B01042F8FB7F894C82FDD2760E080E0A3
S1130D300E94E300882321F0CFBF80E090E014C03C
S1130D40CFBF1064812F9927909378018093770106
S1130D500E947901182F402F5527B70180E090E0B9
S1130D600E94F301812F9927DF91CF911F910F9159
S1130D70FF90EF900895C098609120017091210137
S1130D8041E08FE30E948906089582E090E0909309
S1130D9054018093530181E080935F0120E030E0AF
S1130DA080910401843011F421E030E0232B29F4F4
S1130DB084E00E941501882319F40E94BB0608955B
S1130DC084E00E948E0508951F920F920FB60F9231
S1130DD011242F933F934F935F936F937F938F933C
S1130DE09F93AF93BF93EF93FF938091530190919F
S1130DF05401019749F482E090E090935401809368
S1130E0053010E94C50605C080915B018F5F8093EA
S1130E105B01FF91EF91BF91AF919F918F917F9172
S1130E206F915F914F913F912F910F900FBE0F9053
S1130E301F9018951F9380911801882309F04BC0C7
S1130E40109104011F3F09F046C060E00E94E300D6
S1130E50882309F440C081E08093070280913D011A
S1130E608823E1F11092070285E090E045C09230BA
S1130E7069F5C09A8091050120E030E08F3F11F4BC
S1130E8021E030E0232BE9F4109307018F3F19F49C
S1130E902FEF30E00DC0282F3327F901E259FE4F20
S1130EA08081809305018F3F11F410930601108314
S1130EB020935C0181E08093190182E10E94520138
S1130EC005C0109307011092190111C080911901F6
S1130ED0882369F00FC081E090E00EC08091070183
S1130EE090911901882319F2923021F0EFCF80E01C
S1130EF00E94F40080E090E01F9108951F93CF9327
S1130F00DF939FB7F894C92FDD271C2F909104011C
S1130F10981721F0CFBF81E090E03AC08FEF809323
S1130F200401309118013323F1F48FB7F894992711
S1130F301092F8018FBF0E941A07CFBF11C02093EF
S1130F40040181E090E002C0880F991F4A95E2F7FE
S1130F50809538233093180180E10E9452011FBF0D
S1130F6080E090E015C080E065E0E32FFF270E9459
S1130F70E71B292F492F5527CF01042E02C0959531
S1130F8087950A94E2F780FDDACF822F8F5FEFCF47
S1130F90DF91CF911F9108951F93CF93DF938FB764
S1130FA0F894C82FDD271C2F809153019091540190
S1130FB0892B29F484E00E947E07CFBF1EC01092C3
S1130FC05F0180915B01882311F0B79904C00E99E9
S1130FD008C0882319F0815080935B010E94C506E4
S1130FE00BC081E090E090935401809353011092E0
S1130FF05B0184E00E947E071FBFDF91CF911F91A8
S113100008950E946202C09AC09888E00E946E0609
S113101088E00E946E06C09A84E00E947E070E94C7
S1131020CC070895FF920F931F93CF93DF93F82E6D
S11310308B018FB7F894C82FDD2760E080E00E9411
S1131040E300882321F0CFBF80E090E00CC0CFBF45
S11310508F2D0E947901812F99270E947901802F79
S11310600E9479019927DF91CF911F910F91FF90F1
S113107008951F931FB7F89480915A01882319F497
S113108060E070E009C060E080916A02882309F49E
S113109061E081E06827772780916201882319F451
S11310A080E090E00AC090E08091FD01882309F47B
S11310B091E081E09827892F9927762F6627770F6B
S11310C0770F770FF4E0880F991FFA95E1F7826E96
S11310D09262682B792B81E10E941208812F992753
S11310E08FBF1F9108958FB7F894992760910602D6
S11310F08FBF85E0689FB0011124625D7E4F7064EC
S113110088E10E9412080895EF92FF921F93CF93F3
S1131110DF93E0906301F0906401F70182A59927C1
S1131120182F882309F41FE1C09880915801811772
S113113049F0612F77276F717070606E706885E178
S11311400E94120810935801F70110818FB7F89488
S1131150C82FDD2760E080E00E94E300882311F0BF
S1131160CFBF12C0CFBF8EE390E0909378018093FD
S113117077018EE30E9479011150412F552760E0D9
S113118070E0C7010E94F301DF91CF911F91FF909E
S1131190EF9008950F931F93CF93DF93EC010FB754
S11311A0F89411270E948500FC018FE380830FBF10
S11311B0109268021092670261E082E00E94C90006
S11311C0882319F085E090E072C0809108028F5F57
S11311D08093080281508B838FB7F894082F1127CE
S11311E062E081E00E94E300882329F40FBF0E949B
S11311F0140281E05BC08FB7F894992724E0209310
S1131200F9018FBFD0937E01C0937D010FBFFE0112
S11312103196818129819927982F88273327822B1A
S1131220932B80729C7C8983892F992781832981C0
S1131230982F882733272164822B932B8983892F26
S1131240992781831CA618A619A619AA18AA1FA64D
S113125080E88EA761E06093FC0140917D0150918C
S11312607E018FB7F894282F332780911A0190912B
S11312701B018830910511F0019711F02FBF15C0A3
S113128082E090E090931B0180931A0160937202B4
S11312905093640140936301109224012FBF0E9474
S11312A0E605882311F40E94840880E09927DF91E1
S11312B0CF911F910F910895CF93DF93DA01422FBD
S11312C02D3118F082E090E05EC0ED018B876E83D3
S11312D0872F99278F832FB7F89433278091600144
S11312E0909161012FBFFD018483892F9927858304
S11312F02FB7F894332780910801909109012FBFEB
S11313008887892F9927898731968181298199270F
S1131310982F8827332720643868822B932B89835E
S1131320892F99278183435F4C934D5080910B0102
S1131330882359F010920B01642FCD010E94CA0832
S11313409927282F8823A9F417C0842F99279093CD
S11313507C0180937B01B0931F01A0931E0184E163
S11313600E94520180910B01882349F489E090E0A6
S11313700AC08FEF80930B01822F992704C010922B
S1131380690180E090E0DF91CF910895109203010C
S1131390E0918301F0918401309721F080916602FD
S11313A080FF08C081E080930301089589E00E94D2
S11313B05201089520812D50332767817727762F96
S11313C0662786819927682B792BAF0183850E9434
S11313D05C09882359F70895CF93DF93FB01DB0160
S11313E016968683892F9927ED01898386E0838762
S11313F08091830190918401892B19F085E090E01C
S11314002BC0F0938401E0938301435F40834D50EC
S113141080910301882319F480E090E01DC0838546
S1131420ED0169817727762F662726813327622B82
S1131430732B10920301242FAF010E945C0999279A
S1131440282F882339F081E08093030110928401CE
S113145010928301822F9927DF91CF910895AF9243
S1131460BF92CF92DF92EF92FF920F931F93CF938D
S1131470DF935B016C01C0E0D0E0E7E8F1E0608558
S113148061FF45C02081318142815381E480F58030
S113149006811781D601C501821B930BA40BB50BE2
S11314A08E159F05A007B10790F160FF03C06D7F03
S11314B0608708C02E0D3F1D401F511F20833183BC
S11314C042835383C230D9F0C33028F4CC2341F093
S11314D0C13019F512C0C330A1F0C430F1F413C007
S11314E00E947D02DC01CB016AE070E00E94F31BE4
S11314F08F5F80930F0180E007C082E005C081E028
S113150003C084E001C085E00E94520106C0219618
S11315103996C630D10509F0B2CF87E00E94520156
S1131520DF91CF911F910F91FF90EF90DF90CF90BB
S1131530BF90AF9008951F93182F81E090E090938F
S11315401B0180931A0110923D010E941A078FB764
S1131550F8949927109314018FBF8CE00E945201D4
S11315601F91089580910301882369F48091830178
S1131570909184018617970731F410928401109298
S113158083010E94C6090895AF92BF92CF92DF9261
S1131590EF920F931F935B016C010E943B02AB011E
S11315A0BC01E1E0EE2E9601850180E00E941C0260
S11315B01F910F91EF90DF90CF90BF90AF9008955F
S11315C061E081E00E94C9008823E9F48FB7F894B0
S11315D0282F33278091150190911601892B11F042
S11315E02FBF20C081E090E09093160180931501F5
S11315F02FBFDD9A0E94060324E130E040E050E072
S11316000E94C3030FC062E081E00E94E3008823CC
S113161019F089E090E0089561E081E00E94E30020
S1131620882319F080E090E0089585E090E0089523
S1131630CF92DF92EF92FF920F931F93CFB6F8945D
S1131640DD240E947D02DC01CB0166E470E00E948F
S1131650F31BFBE0EF2EF12CE80EF91EF0926E0264
S1131660E0926D020E94060300271127A80197014A
S11316700E94C303CFBE1F910F91FF90EF90DF90A4
S1131680CF9008951F93CF93DF938FB7F894C82F0B
S1131690DD271C2F80911A0190911B010897C9F432
S11316A089E00E946E0683E00E947E07C09A81E072
S11316B090E090931B0180931A018FB7F8949927B7
S11316C023E0209314018FBF8CE00E945201CFBF0E
S11316D030C0C09880917202882311F085E001C067
S11316E084E00E946E0683FD09C080E00E946E06BD
S11316F083FF04C085E090E020E003C083E090E035
S113170021E090931B0180931A01C09A1FBF2223EA
S113171041F01092240183E00E947E070E94180B7E
S113172008C00E94060320E431E040E050E00E943B
S1131730C303DF91CF911F91089578941F920F9264
S11317400FB60F9211241F932F933F934F935F93E0
S11317506F937F938F939F93AF93BF93EF93FF9375
S113176087B78F7E87BF78941FB7F89480916A01FA
S113177090916B01A0916C01B0916D010097A1054E
S1131780B10509F051C080911A0190911B01853077
S1131790910561F18630910530F48330910549F06B
S11317A0049781F51AC087309105F1F0089751F537
S11317B014C0869B0FC084E090E090931B0180933B
S11317C01A010E94060327E030E040E050E00E9446
S11317D0C30318C00E94180B15C00E94E605882395
S11317E089F40E94420B0EC080E00AC089E00E9486
S11317F06E0681E00E94DE0383E00E947E0787E09C
S11318000E949B0A8091150190911601019771F431
S113181082E090E09093160180931501DE98DE9AA1
S113182080E00E948E0502C00E942303812F992725
S11318308FBFFF91EF91BF91AF919F918F917F9156
S11318406F915F914F913F912F911F910F900FBE18
S11318500F901F901895EF92FF920F931F93CF93C1
S1131860DF938B01809177019091780186FF40C1CD
S11318708F7B8F3309F08EC1C0912001D09121015B
S113188058815093550180915301909154018530B2
S1131890910509F443C08630910509F48AC0029782
S11318A009F01FC185E090E09093540180935301A7
S11318B040913C01852F99270196242F332728171F
S11318C039074CF1B79906C00E9904C0451B415025
S11318D040933C01409155014A32E8F44423A1F07D
S11318E0BE016F5F7F4F483018F047E050E007C0FB
S11318F086E090E09093540180935301552780E053
S113190090E00E94F30146C110925F01C09A84E006
S11319100E947E07E3C00E9401083CC186E090E07B
S1131920909354018093530180916201882309F4B8
S113193039C08091FD018823A9F5898185FF32C0D2
S11319408F814E812FB7F894332760917301709182
S113195074012FBF9927982F88275527842B952BFF
S11319608617970759F08F812E819927982F8827FA
S11319703327822B932B8F5F9F4FA1F4898187702C
S1131980813081F4C09AC0988AE00E946E06C09AA1
S1131990C0984091550147502896BE018FE30E949C
S11319A08906F8C040915501475055272896BE0135
S11319B0A6CFC09A80915B01882339F484E00E9409
S11319C07E0780915B01882311F0B7990AC00E9BB2
S11319D008C090916102992321F0809155018B30C8
S11319E038F480912001909121010E946E023DC043
S11319F0913001F5E0916502FF27EE0FFF1FEE0F16
S1131A00FF1FE35FFD4F2081318142815381E091CB
S1131A102001F091210121ABBB27A52F942F832F07
S1131A2080ABCA01AA27BB2787A7252F33274427C2
S1131A30552726A7809165029927019668E070E0F2
S1131A400E94071C809365028091610281508093FB
S1131A506102882351F080912001909121010E941C
S1131A606E02109265021092610280915501FE018E
S1131A70E80FF11D808187FF31C0012B79F1698165
S1131A806770E0912001F0912101623019F5A09175
S1131A906301B0916401109709F180911A0190914A
S1131AA01B010797D9F4ED019B8183819817B1F449
S1131AB087B78F7E87BF908181E08CA7E90FF11DE6
S1131AC08291319688A780818F7789A780E00E94D0
S1131AD09B0A04C0613011F483E12AC00E94CC0740
S1131AE059C010925F01C09A84E00E947E0752C0E0
S1131AF08E3309F04FC0C09A80911A0190911B0156
S1131B000897C9F4C09889E00E946E06C09A83E0E1
S1131B100E947E0781E090E090931B0180931A015C
S1131B208FB7F894992723E0209314018FBF8CE09A
S1131B300E9452012FC080917202882349F484E0EC
S1131B4090E090931B0180931A010E94420B22C0E3
S1131B5083E00E947E0783E090E090931B018093D2
S1131B601A010E947D02DC01CB0166E371E00E9450
S1131B70F31BABE0EA2EF12CE80EF91EF0923601CD
S1131B80E09235010E94060300271127A80197015E
S1131B900E94C303DF91CF911F910F91FF90EF90AB
S1131BA008951F920F920FB60F9211242F933F9313
S1131BB04F935F936F937F938F939F93AF93BF9351
S1131BC0EF93FF932FB1E091BD01F091BE013097E7
S1131BD039F08091810190918201E80FF91F2083EF
S1131BE0809181019091820101969093820180936A
S1131BF0810180E00E94FA0040912201509123016A
S1131C0080918101909182018417950718F40E94B4
S1131C1085011CC06091BD017091BE0180916B0271
S1131C2090916C021092BE011092BD0110926C0250
S1131C3010926B02109223011092220110928201E1
S1131C40109281012FB120E00E942B0CFF91EF91A3
S1131C50BF91AF919F918F917F916F915F914F91C0
S1131C603F912F910F900FBE0F901F9018956F9278
S1131C707F928F929F92AF92BF92CF92DF92EF9218
S1131C80FF920F931F93CF93DF93CDB7DEB7A8973F
S1131C900FB6F894DEBF0FBECDBFE82FFF27E531A6
S1131CA0F10508F0B5C6EA5BFF4FEE0FFF1F059084
S1131CB0F491E02D099480916602882309F065C1AE
S1131CC0A7C620910E0130910F01422F430F512DD1
S1131CD0511DCA014535510534F410921001230FEA
S1131CE020930E01EEC1855590400F9798F481E042
S1131CF080931001230F20930E010E943B02AB013D
S1131D00BC01EE2408E813E120E030E082E00E9408
S1131D101C02D7C183E00E945201D3C181E08093A9
S1131D20CC0180910001909101018093CE01892F13
S1131D3099278093CD018091560199278093D001F2
S1131D401092CF0180917F0199278093D201109244
S1131D50D10147E060EC71E081E090E069C082E08D
S1131D608093CC018091700299278093CE011092C8
S1131D70CD014091C2015527542F44272091C10120
S1131D8033272062422B532B4093C101452F552703
S1131D904093C20143E060EC71E00E94EC091092B0
S1131DA0110136C683E08093CC01809100019091AB
S1131DB001018093CE01892F99278093CD0149E0B9
S1131DC060EC71E08FEF9FEF0E94EC09882309F02B
S1131DD01FC60E943B02AB01BC01B1E0EB2E00ED3B
S1131DE017E020E030E084E00E941C0211C684E089
S1131DF08093CC0180910001909101018093CE01E8
S1131E00892F99278093CD0180915601992780933A
S1131E10D0011092CF0180917F0199278093D20144
S1131E201092D1018091700249E060EC71E0992731
S1131E300E94EC09EDC520911301222309F4E8C5A1
S1131E4085E08093CC018091000190910101809301
S1131E50CE01892F99278093CD0180910F01992775
S1131E608093D4011092D30147E060EC71E0822F9B
S1131E709927DECF80915701882361F520910902CB
S1131E8030910A0240910B0250910C02EFB7F89482
S1131E90FF276091F4017091F5018091F601909112
S1131EA0F701E0903801F090390100913A01109166
S1131EB03B016E0D7F1D801F911FEFBF2093090210
S1131EC030930A0240930B0250930C021092570174
S1131ED00E9474040E943B0243C00E943B025B01C7
S1131EE06C018FB7F8949927109280018FBFEFEFA0
S1131EF0EE2EEFEFFE2EEFEF0E2FEFE71E2F60E03A
S1131F00E7E8F1E0808581FF1CC080819181A28196
S1131F10B381A6019501281B390B4A0B5B0BDA012F
S1131F20C9012481358146815781281B390B4A0B0D
S1131F305B0B2E153F05400751071CF479018A01FC
S1131F4061E0399631E0ED3BF307E1F6662309F4ED
S1131F505FC51E141F04100611062CF0C601B5013E
S1131F600E942F0A55C5E0920902F0920A020093DA
S1131F700B0210930C0281E080935701A801970192
S1131F80C601B5010E94740443C521E0E3E8F1E011
S1131F9090916602822F892339F011821082822F58
S1131FA08095982390936602329641E0E339F407D2
S1131FB009F42EC5220FECCFE0910301FF27EE0FA9
S1131FC0FF1FED57FE4F118210820E94C60920C5E3
S1131FD00FB7F894112781E00E94DE0361E0E62E3A
S1131FE0F12CF0921B01E0921A0110921C01109244
S1131FF03D01109258010FBF0FB7F89411270E94AA
S11320006202F0925401E092530110925F0189B789
S11320108F7B89BF80E488BF8AB780628ABF8AB712
S11320208F7E8ABF89B7806489BF0FBF8FB7F8944A
S1132030082F11278091150190911601049719F426
S113204083E00E946E060FBF0FB7F8941127C09A61
S113205080E00E947E070FBF8FB7F894992722E093
S11320602093F9018FBF80910001909101012FB756
S1132070F89433270196AA27BB2780936501909390
S11320806601A0936701B09368012FBF0E947D028F
S1132090DC01CB0164E670E00E94F31B80935601DF
S11320A00E947D02DC01CB0164E670E00E94F31B18
S11320B080937F018091000190910101019709F4BF
S11320C0A7C40E947D02DC01CB016EE170E00E9496
S11320D0F31B8F5F80935901992728EE33E0829F89
S11320E0B001839F700D929F700D1124882777FD96
S11320F08095982F0E94C40A8BC48FB7F8949927AF
S11321001092F90171C08FB7F8949927F0901401D7
S11321108FBF63E081E00E94E300882359F10FB789
S1132120F894112710921B0110921A0187B78F7E21
S113213087BF87B78F7D87BF83E00E947E07C09AE1
S11321400FBF0FB7F8941127109254011092530146
S11321500E946202C09A89B78F7B89BF0FBF109219
S1132160160110921501DE98DD98DE9A8BE00E942C
S1132170520107C08FB7F894992722E02093F90100
S11321808FBF00917D0110917E010E941402809105
S1132190670290916802892B09F03AC48FEF80930B
S11321A00B014F2DB8012CC48FB7F894282F332777
S11321B0122F80916F02882309F581E080936F02CA
S11321C08091150190911601049721F481E00E94F9
S11321D08E0503C08EE00E9452011FBF19C48FB741
S11321E0F894992710926F028FBF12C48FB7F89496
S11321F0282F332780911701882311F02FBF08C49B
S11322002FBF80B3992756E0969587955A95E1F7A5
S1132210182F117090917501809176018917D9F06A
S11322201917C9F484E090E0909316018093150186
S11322308FB7F894992721E0209317018FBF60E0AE
S113224070E08DE10E9412080E943606C09AC09880
S11322508AE00E945201109376018FE0F2C08FB79A
S1132260F8949927109104018FBF123009F465C0C6
S1132270133030F4112359F0113009F0C9C348C0A8
S1132280133009F474C0143009F0C2C3A0C0C0985C
S11322908FB7F894082F112780911501909116019A
S11322A0029709F0B9C083E090E0909316018093FF
S11322B0150168E170E08DE10E94120881E08093CD
S11322C075011092170180B3992746E0969587957A
S11322D04A95E1F781709070809376018FE00E94B7
S11322E0520181E00E946E066FE772E08CE10E9469
S11322F012080E9473080E94390866E57AE287E1B1
S11323000E9412086FEF70E885E10E94120884C0F1
S1132310C09886E00E946E060E9473080E943908E5
S11323200E943606C09AC09883E00E946E06C09A46
S113233081E00E947E078EE084C0C0988FB7F89435
S1132340082F112760E080E00E94E300882311F049
S11323500FBF0AC00FBF83E50E94790180E00E948D
S1132360790180E00E947901C09A82E02DC08FB784
S1132370F894992720911A018FBF243039F028301E
S113238041F0223001F50E94840842C30E94420BAE
S11323903FC3C09889E00E946E06C09A83E00E9401
S11323A07E078FB7F894992721E030E030931B0122
S11323B020931A018FBF8FB7F894992710931401B3
S11323C08FBF8CE03EC083E00E947E0721C30E9441
S11323D0BB061EC30FB7F8941127409122015091F8
S11323E023016091BD017091BE0180916B029091B7
S11323F06C021092BE011092BD0110926C021092F8
S11324006B02109223011092220110928201109209
S1132410810120E00E942B0C0FBFFAC22FB7F89461
S1132420332780915C018093070182E08093190136
S11324302FBF80910701882309F0EAC2B89AC09897
S113244080E10E945201E4C2A0912001B0912101D7
S11324501C919D01210F311DF9018081881F88275E
S1132460881FFD0183A7F90180818F77FD0181A772
S113247021503040F9018081FD0180A7A091200105
S1132480B0912101FD0132818FB7F89499272091F1
S11324905A018FBF222309F490C0832F9927969560
S11324A0879596958795837090708230910541F554
S11324B0878146812FB7F894332760917301709117
S11324C074012FBF9927982F88275527842B952B84
S11324D08617970719F481E090E06CC0FD018781AD
S11324E0268140E050E09927982F88273327822BB4
S11324F0932B8F5F9F4F11F441E050E0CA015AC003
S1132500039709F056C29E012F5F3F4F4EEF51E0F3
S113251088E0FA010190AF01F90101929F01815015
S1132520C1F79E012F5D3F4FAE014F5F5F4F88E0C3
S1132530FA010190AF01F90101929F018150C1F7A5
S11325409E01275F3F4FAE014F5D5F4F88E0FA0168
S11325500190AF01F90101929F018150C1F79E01E1
S11325602F5E3F4FAE01475F5F4F88E0FA01019055
S1132570AF01F90101929F018150C1F79E01275ECD
S11325803F4FAE014F5E5F4F88E0FA010190AF010B
S1132590F90101929F018150C1F748E050E0BE016A
S11325A0675E7F4FCD0106960E94701C892B09F04F
S11325B000C203C0882309F4FCC11D3008F4F9C12A
S11325C0C0902001D0902101F6012281822F992709
S11325D016E0969587951A95E1F7039719F468E044
S11325E070E002C062E070E0822F9927969587958B
S11325F09695879583709070039719F488E090E01E
S113260002C082E090E026E030E0C20ED31E40E03B
S113261050E020E030E0F601E80FF91F8AEF9FEF69
S1132620C80ED91E05C08191480F511D2F5F3F4F21
S113263026173707C4F3F60163818FEF809369028D
S11326408FB7F894782F20E030E0E9E2F1E0808160
S113265091818417950731F48281861709F494C116
S1132660209369022F5F3F4F33962430310579F769
S11326707FBF909169023FB7F8949F3F21F080910A
S11326801D01891799F420911D01822F9927FC01BE
S1132690EE0FFF1FE80FF91FE75DFE4F51834083E4
S11326A062832F5F237020931D010CC0892F99270B
S11326B0FC01EE0FFF1FE80FF91FE75DFE4F51838A
S11326C040836283832F99278FBF0FB7F894112714
S11326D0C6010E948500FC0190810FBFF60183A50D
S11326E0882309F462C19F3309F05FC18781468161
S11326F02FB7F894332760910801709109012FBF17
S11327009927982F88275527842B952B8617970769
S113271061F0878126819927982F88273327822B78
S1132720932B8F5F9F4F09F040C1F601838586305C
S113273009F03BC18485682E7724862D60921201AE
S1132740813009F080C080910001909101010197CE
S113275009F02BC180911101882309F026C18685D7
S11327608093700207858089F188E2881127102FF1
S113277000279927082B192B80915601081B110952
S1132780B801882777FD8095982F0E94A11A17FF1A
S113279006C020E030E040E857E40E940F1A9B0195
S11327A0AC010E942D1B4B015C010F2D1127102F32
S11327B000278E2D9927082B192B80917F01081B48
S11327C01109B801882777FD8095982F0E94A11AD6
S11327D017FF06C020E030E040E857E40E940F1ADB
S11327E09B01AC010E942D1B9B01AC01C501B401EE
S11327F00E940F1A0E94941B0E94731A062F609362
S113280037010E943B02AB01BC01112788EE93E023
S11328109801289F8001299F100D389F100D1124C5
S1132820222717FD2095322FA1E0EA2E81E00E9495
S11328301C0260921101F6018089809356018289FD
S113284080937F01B2C08230C9F4F6018585268564
S11328509927982F88273327822B932B20910001C7
S1132860309101012817390709F09FC08091A10117
S11328708D7F8093A10110920E0197C08330F1F4F3
S11328808091000190910101019709F48EC080911B
S11328901001882309F089C00E943B02AB01BC01EE
S11328A0E1E0EE2E0CED15E020E030E083E00E9444
S11328B01C02F60186858093700277C0843009F08B
S11328C065C08091000190910101019709F46DC0E8
S11328D0F60107858089F188E2881127102F0027E7
S11328E09927082B192B80915601081B1109B8014F
S11328F0882777FD8095982F0E94A11A17FF06C09C
S113290020E030E040E857E40E940F1A9B01AC013C
S11329100E942D1B4B015C010F2D1127102F002746
S11329208E2D9927082B192B80917F01081B1109E3
S1132930B801882777FD8095982F0E94A11A17FF68
S113294006C020E030E040E857E40E940F1A9B01E3
S1132950AC010E942D1B9B01AC01C501B4010E9476
S11329600F1A0E94941B0E94731A9B01AC0160937E
S11329703701809102012817C0F4F60186858093FF
S113298013012093020111C07FBF0FC0853069F489
S11329908091000190910101019739F0F601848939
S11329A080930F0180E00E945201D0922101C092D5
S11329B020018FB7F894992710925F018FBF0E946E
S11329C0CC0726C09091690180910B01981701F101
S11329D090930B019923C9F400911E0110911F01DA
S11329E060917B01C8010E94CA08482F55274423DF
S11329F079F08FEF80930B0160911E0170911F019C
S1132A00F80183850E94B20A03C08FEF80930B0103
S1132A10A8960FB6F894DEBF0FBECDBFDF91CF915D
S1132A201F910F91FF90EF90DF90CF90BF90AF90E8
S1132A309F908F907F906F900895809162028F3F56
S1132A40B1F0282F3327F901E25CFE4F8081809397
S1132A5062028F3F11F4809371028FEF80832F3FC6
S1132A6031F0822F0E94370E81E090E0089580E0DB
S1132A7090E008951F93CF93DF93CDB7DEB7E0972F
S1132A800FB6F894DEBF0FBECDBF1FB7F89445E173
S1132A9050E06FEF70E08EE391E00E947D1C8FEFB9
S1132AA0809362028093710281E08EBD88E080BFD2
S1132AB083E083BF8CB59DB54AE72CB53DB5281797
S1132AC0390708F44150442311F0C901F6CF92B7F5
S1132AD082B78917E9F32CB53DB592B782B7891748
S1132AE0E9F38CB59DB5821B930B409645E0969512
S1132AF087954A95E1F7909364028093630213BE2D
S1132B0083B78EBD8EB580BF12BE1DBC1CBC8FEFBB
S1132B1086BF86B780937C0080B7992787709070B2
S1132B20892BD1F7D29AD19AD09ADA9AD99AD89A8B
S1132B3015BA8FEF84BBD498DC981DBC1CBC87B736
S1132B40846087BF8EB5887F84608EBD0E941D150A
S1132B508823E1F78FEF80935D01E9E2F1E08FEFE5
S1132B609FEF918380831282339621E0E533F2074D
S1132B70C1F70E947D026093080280910001909148
S1132B8001010196AA27BB278093650190936601F2
S1132B90A0936701B09368018DE292E090932101C4
S1132BA0809320018E98B89A8C988FEF80936E0151
S1132BB01092F8011092F9011092FA011092FB019F
S1132BC0B89AD69AD59A8FB7F89499272091080184
S1132BD0309109018FBF30937401209373010E94D7
S1132BE08E0429A73AA74BA75CA76DA77EA78FA73A
S1132BF098ABDE019196FE01B99688E001900D92A2
S1132C008150E1F7DE015196FE01B19688E0019012
S1132C100D928150E1F7DE015996FE01719688E02C
S1132C2001900D928150E1F7AEEFB1E0FE0179968B
S1132C3088E001900D928150E1F780910A01992773
S1132C4090936101809360018FE18093BF018AE1D9
S1132C50809306020E948E0429A73AA74BA75CA77B
S1132C606DA77EA78FA798ABDE019196FE01B9965A
S1132C7088E001900D928150E1F7DE011196FE018A
S1132C80B19688E001900D928150E1F7DE0119962A
S1132C90FE01319688E001900D928150E1F7AEEF8C
S1132CA0B1E0FE01399688E001900D928150E1F780
S1132CB0AEEFB1E0FD0137969C9180818D939083B6
S1132CC0319782E0E130F807B9F781E080935A0147
S1132CD010926A02809362011092FD0180B78860AD
S1132CE080BF8BE083BF86EE81BF87B7826087BFDA
S1132CF00E94F1030E941D158823E1F7812F992773
S1132D008FBF78940E94E00A8FB7F894482F552714
S1132D104BC087B7992783709070892B19F4E5E02D
S1132D20F0E013C080B7992787709070892BD1F792
S1132D3081B792B7891B8C3030F082B7853F18F485
S1132D40E3E0F0E002C0E2E0F0E087B7887BC1F4A2
S1132D5080917D008B7FA1F46E9912C08AB190910D
S1132D609A00892B887161F48091740082FD08C0F7
S1132D70379B03C081E090E005C085E090E002C08D
S1132D8080E090E025B78E1708F4E82FFF27EA5477
S1132D90FF4FE491237E2062E22BE5BF789488956F
S1132DA0F89485B78F7D85BF809162028F3F09F4C7
S1132DB0B0CF282F3327F901E25CFE4F8081809346
S1132DC062028F3F11F4809371028FEF80832F3F53
S1132DD009F49FCF4FBF822F0E94370E95CF78946E
S1132DE01F920F920FB60F9211242F923F924F927F
S1132DF05F926F927F928F929F92AF92BF92CF9287
S1132E00DF92EF92FF920F931F932F933F934F9371
S1132E105F936F937F938F939F93AF93BF93CF935E
S1132E20DF93EF93FF93C6B5D7B58FB7F894282EE9
S1132E300E9406039B012C1B3D0B442755272B01A5
S1132E403C01421A530A640A750A80911A0190914E
S1132E501B018530910521F0069709F0E0C0BFC041
S1132E6086E090E090931B0180931A0131E0332EA9
S1132E7030925E0110921C0180E00E94DE03E0911A
S1132E806301F091640141AABB27A72D962D852DDE
S1132E9080ABC301AA27BB2787A7872D9927AA2719
S1132EA0BB2786A7E0916301F091640185A588237F
S1132EB009F484C06081655077274F01860E971E00
S1132EC0F4012081E1808281A3809927AA27BB276E
S1132ED0BA2FA92F982F8827332744275527522FF5
S1132EE0442733272227FF24002711278701FF24A3
S1132EF0EE242E293F29402B512BBB24CC24DD2446
S1132F002A293B294C295D29822B932BA42BB52BF1
S1132F1084199509A609B7098383292F3A2F4B2FC2
S1132F20552722839D014427552721838B2F9927D9
S1132F30AA27BB278083C09824E0A40180E090E006
S1132F400E94F505C09AF4012081E1808281A3806A
S1132F509927AA27BB27BA2FA92F982F8827332769
S1132F6044275527522F442733272227FF2400279D
S1132F7011278701FF24EE242E293F29402B512BB2
S1132F80BB24CC24DD242A293B294C295D29822B0E
S1132F90932BA42BB52B840D951DA61DB71D8383E0
S1132FA0292F3A2F4B2F552722839D01442755273C
S1132FB021838B2F9927AA27BB278083E091630164
S1132FC0F0916401818185FF02C030923D0183E06C
S1132FD00E947E0787B78F7E87BF84997AC010923C
S1132FE05E0181E00E94DE03E0916301F0916401DF
S1132FF0818185FF0FC087E090E090931B0180934F
S11330001A010E94060320E031E040E050E00E94F3
S1133010C30303C080E00E949B0A849B5AC0809132
S11330201C01882391F580915E01882371F511E0DC
S113303010935E010E94DE0380B320916102283068
S113304098F4E0916502E20FFF27E770F070EE0F4D
S1133050FF1FEE0FFF1FE35FFD4F4082518262822C
S113306073822F5F2093610210931C01D0937A0125
S1133070C093790184992DC0992754E0969587953A
S11330805A95E1F7182F117001C010E080915E018C
S11330908130F9F410925E010E94DE0310921C014B
S11330A01123B9F48091790190917A01C81BD90B4D
S11330B02A9778F480916102882319F081508093D3
S11330C061028091630190916401009711F00E9464
S11330D06E022FBEFF91EF91DF91CF91BF91AF911F
S11330E09F918F917F916F915F914F913F912F911C
S11330F01F910F91FF90EF90DF90CF90BF90AF9012
S11331009F908F907F906F905F904F903F902F9003
S11331100F900FBE0F901F901895ACE2B0E0E3E95A
S1133120F8E10C94391C222E332E442E552E662E93
S1133130772E882E992EFE013196A8E01192AA9539
S1133140E9F729823A824B825C826D827E828F8289
S11331509886FE013996B8E01192BA95E9F7A986E6
S1133160BA86CB86DC86ED86FE860F87188B89812E
S11331709A81AB81BC8189A79AA7ABA7BCA77C0124
S11331808D018FEF9FEFA0E0B0E0E822F9220A233F
S11331901B2389A59AA5ABA5BCA51D0144245524D0
S11331A089859A85AB85BC858DA39EA3AFA3B8A75B
S11331B05C016D018FEF9FEFA0E0B0E0A822B9227F
S11331C0CA22DB228DA19EA1AFA1B8A53D0188240E
S11331D09924C801B701A60195010E941A1C69A38C
S11331E07AA38BA39CA3C801B701A40193010E94F5
S11331F01A1C7B018C01C201B101A60195010E9438
S11332001A1C5B016C01C201B101A40193010E946B
S11332101A1C3B014C01EA0CFB1C0C1D1D1D89A151
S11332209AA1ABA1BCA19D01442755272E0D3F1D9A
S1133230401F511F2A153B054C055D0540F480E0F5
S113324090E0A1E0B0E0680E791E8A1E9B1ECA01C0
S1133250AA27BB27860D971DA81DB91D8D8F9E8F8C
S1133260AF8FB8A3A9013327222789A19AA1ABA1C3
S1133270BCA1A070B070280F391F4A1F5B1F298F93
S11332803A8F4B8F5C8FA98CBA8CCB8CDC8CED8CF9
S1133290FE8C0F8D18A1FE01719698E011929A95FB
S11332A0E9F7ED8AFE8A0F8B188F2D813E814F81BD
S11332B058856DA17EA18FA198A50E941A1C3B017F
S11332C04C012D853E854F85588969A57AA58BA526
S11332D09CA50E941A1C2D893E894F89588D260F62
S11332E0371F481F591F260D371D481D591D2D8B8B
S11332F03E8B4F8B588F6D887E888F88988C2A2DB3
S11333003B2D4C2D5D2D662D772D882D992DE2E1D9
S1133310AC960C94551CA0E1B0E0E1E9F9E10C9401
S1133320391C222E332E442E552E662E772E882EAF
S1133330992E002309F466C088E0FE0131961192AB
S11333408A95E9F729833A834B835C836D837E8373
S11333508F829887E0E2E01B1E16CCF52D813E811A
S11333604F815885602F772767FD7095DA01C90171
S1133370062E04C0B695A795979587950A94D2F71B
S11333808D879E87AF87B88B04C0220F331F441FDD
S1133390551FEA95D2F789819A81AB81BC8104C01B
S11333A0B695A795979587956A95D2F7282B392BCB
S11333B04A2B5B2B29873A874B875C8729843A847D
S11333C04B845C846D847E848F8498881BC01D86A6
S11333D01E861F86188A2E2F332727FD3095309599
S11333E021953F4F8D819E81AF81B88504C0B695EC
S11333F0A795979587952A95D2F789879A87AB875A
S1133400BC87DCCF222D332D442D552D662D772DF1
S1133410882D992DE2E160960C94551C5058BB27D9
S1133420AA270ED0E0C0D1D030F0D6D020F031F4AD
S11334309F3F11F41EF4C6C00EF4E095E7FBBCC038
S1133440E92FE2D080F3BA17620773078407950760
S113345018F071F49EF5FAC00EF4E0950B2EBA2F15
S1133460A02D0B01B90190010C01CA01A001112486
S1133470FF27591B99F0593F50F4503E68F11A1632
S1133480F040A22F232F342F4427585FF3CF4695C3
S113349037952795A795F0405395C9F77EF41F16E5
S11334A0BA0B620B730B840BBAF09150A1F0FF0FAF
S11334B0BB1F661F771F881FC2F70EC0BA0F621F9B
S11334C0731F841F48F4879577956795B795F7958B
S11334D09E3F08F0B3CF9395880F08F09927EE0F1D
S11334E097958795089598D088F09F5790F0B92FB5
S11334F09927B751A0F0D1F0660F771F881F991F45
S11335001AF0BA95C9F712C0B13081F09FD0B1E07A
S113351008959CC0672F782F8827B85F39F0B93F8A
S1133520CCF3869577956795B395D9F73EF4909546
S11335308095709561957F4F8F4F9F4F0895E894C4
S113354009C097FB3EF490958095709561957F4FE7
S11335508F4F9F4F9923A9F0F92F96E9BB27939595
S1133560F695879577956795B795F111F8CFFAF4A5
S1133570BB0F11F460FF1BC06F5F7F4F8F4F9F4FD6
S113358016C0882311F096E911C0772321F09EE834
S1133590872F762F05C0662371F096E8862F70E09A
S11335A060E02AF09A95660F771F881FDAF7880F74
S11335B09695879597F9089597F99F6780E870E045
S11335C060E008959FEF80EC089500240A94161695
S11335D0170618060906089500240A9412161306FD
S11335E0140605060895092E0394000C11F488238B
S11335F052F0BB0F40F4BF2B11F460FF04C06F5FA7
S11336007F4F8F4F9F4F089557FD9058440F551F7C
S113361059F05F3F71F04795880F97FB991F61F050
S11336209F3F79F087950895121613061406551FC7
S1133630F2CF4695F1DF08C0161617061806991F33
S1133640F1CF86957105610508940895E894BB2728
S113365066277727CB0197F908950BD0C4CFB5DF40
S113366028F0BADF18F0952309F0A6CFABCF1124C8
S1133670EECFCADFA0F3959FD1F3950F50E0551F0D
S1133680629FF001729FBB27F00DB11D639FAA27B3
S1133690F00DB11DAA1F649F6627B00DA11D661F02
S11336A0829F2227B00DA11D621F739FB00DA11D23
S11336B0621F839FA00D611D221F749F3327A00DDD
S11336C0611D231F849F600D211D822F762F6A2F79
S11336D011249F5750408AF0E1F088234AF0EE0FFE
S11336E0FF1FBB1F661F771F881F91505040A9F70B
S11336F09E3F510570F060CFAACF5F3FECF3983E38
S1133700DCF3869577956795B795F795E7959F5F71
S1133710C1F7FE2B880F911D9695879597F908950B
S113372011F40EF44FCF3EC077DFD0F39923D9F3D1
S1133730CEF39F57550B87FF43D00024A0E640EA01
S1133740900180585695979528F4805C660F771FF2
S1133750881F20F026173707480730F4621B730BC5
S1133760840B202931294A2BA695179407942025E8
S113377031254A2758F7660F771F881F20F0261730
S11337803707480730F4620B730B840B200D311D8F
S1133790411DA09581F7B901842F9158880F969502
S11337A0879508959F3F31F0915020F48795779540
S11337B06795B795880F911D9695879597F9089504
S11337C091505040660F771F881FD2F70895991BB8
S11337D079E004C0991F961708F0961B881F7A9504
S11337E0C9F780950895AA1BBB1B51E107C0AA1F06
S11337F0BB1FA617B70710F0A61BB70B881F991F8E
S11338005A95A9F780959095BC01CD01089597FB31
S1133810092E07260AD077FD04D0E5DF06D0002064
S11338201AF4709561957F4F0895F6F790958195F8
S11338309F4F0895629FD001739FF001829FE00D16
S1133840F11D649FE00DF11D929FF00D839FF00D1B
S1133850749FF00D659FF00D9927729FB00DE11DC7
S1133860F91F639FB00DE11DF91FBD01CF011124A4
S113387008952F923F924F925F926F927F928F9210
S11338809F92AF92BF92CF92DF92EF92FF920F93EB
S11338901F93CF93DF93CDB7DEB7CA1BDB0B0FB6F5
S11338A0F894DEBF0FBECDBF09942A8839884888B2
S11338B05F846E847D848C849B84AA84B984C88448
S11338C0DF80EE80FD800C811B81AA81B981CE0F3F
S11338D0D11D0FB6F894DEBF0FBECDBFED01089524
S11338E0FB01DC0104C08D910190801921F4415049
S11338F05040C8F7881B990B0895DC0101C06D93F3
S10D390041505040E0F70895FFCF56
S111390A0100A001FFFFFFFF010022FFFFFFED
S9030000FC
